{
  "contractName": "DemandFactory",
  "abi": [
    {
      "inputs": [],
      "stateMutability": "nonpayable",
      "type": "constructor"
    },
    {
      "anonymous": false,
      "inputs": [
        {
          "indexed": false,
          "internalType": "uint256",
          "name": "id",
          "type": "uint256"
        },
        {
          "indexed": false,
          "internalType": "string",
          "name": "username",
          "type": "string"
        },
        {
          "indexed": false,
          "internalType": "address",
          "name": "sender",
          "type": "address"
        },
        {
          "indexed": false,
          "internalType": "string",
          "name": "content",
          "type": "string"
        },
        {
          "indexed": false,
          "internalType": "string",
          "name": "contact",
          "type": "string"
        },
        {
          "indexed": false,
          "internalType": "uint256",
          "name": "status",
          "type": "uint256"
        }
      ],
      "name": "NewDemand",
      "type": "event"
    },
    {
      "anonymous": false,
      "inputs": [
        {
          "indexed": false,
          "internalType": "address",
          "name": "from",
          "type": "address"
        },
        {
          "indexed": false,
          "internalType": "address",
          "name": "to",
          "type": "address"
        },
        {
          "indexed": false,
          "internalType": "uint256",
          "name": "amount",
          "type": "uint256"
        }
      ],
      "name": "Sent",
      "type": "event"
    },
    {
      "anonymous": false,
      "inputs": [
        {
          "indexed": false,
          "internalType": "uint256",
          "name": "id",
          "type": "uint256"
        },
        {
          "indexed": false,
          "internalType": "uint256",
          "name": "status",
          "type": "uint256"
        }
      ],
      "name": "Update",
      "type": "event"
    },
    {
      "inputs": [],
      "name": "admin",
      "outputs": [
        {
          "internalType": "address",
          "name": "",
          "type": "address"
        }
      ],
      "stateMutability": "view",
      "type": "function"
    },
    {
      "inputs": [
        {
          "internalType": "uint256",
          "name": "",
          "type": "uint256"
        }
      ],
      "name": "demands",
      "outputs": [
        {
          "internalType": "uint256",
          "name": "id",
          "type": "uint256"
        },
        {
          "internalType": "string",
          "name": "username",
          "type": "string"
        },
        {
          "internalType": "address",
          "name": "sender",
          "type": "address"
        },
        {
          "internalType": "string",
          "name": "content",
          "type": "string"
        },
        {
          "internalType": "string",
          "name": "contact",
          "type": "string"
        },
        {
          "internalType": "uint256",
          "name": "status",
          "type": "uint256"
        }
      ],
      "stateMutability": "view",
      "type": "function"
    },
    {
      "inputs": [],
      "name": "index",
      "outputs": [
        {
          "internalType": "uint256",
          "name": "",
          "type": "uint256"
        }
      ],
      "stateMutability": "view",
      "type": "function"
    },
    {
      "inputs": [
        {
          "internalType": "string",
          "name": "_username",
          "type": "string"
        },
        {
          "internalType": "string",
          "name": "_content",
          "type": "string"
        },
        {
          "internalType": "string",
          "name": "_contact",
          "type": "string"
        }
      ],
      "name": "createDemand",
      "outputs": [],
      "stateMutability": "nonpayable",
      "type": "function"
    },
    {
      "inputs": [
        {
          "internalType": "uint256",
          "name": "index",
          "type": "uint256"
        }
      ],
      "name": "getDemands",
      "outputs": [
        {
          "internalType": "string[]",
          "name": "",
          "type": "string[]"
        },
        {
          "internalType": "uint256[]",
          "name": "",
          "type": "uint256[]"
        }
      ],
      "stateMutability": "view",
      "type": "function"
    },
    {
      "inputs": [
        {
          "internalType": "uint256",
          "name": "index",
          "type": "uint256"
        }
      ],
      "name": "update",
      "outputs": [],
      "stateMutability": "nonpayable",
      "type": "function"
    },
    {
      "inputs": [
        {
          "internalType": "uint256",
          "name": "index",
          "type": "uint256"
        }
      ],
      "name": "failed",
      "outputs": [],
      "stateMutability": "nonpayable",
      "type": "function"
    },
    {
      "inputs": [],
      "name": "destroy",
      "outputs": [],
      "stateMutability": "nonpayable",
      "type": "function"
    }
  ],
  "bytecode": "0x608060405234801561001057600080fd5b506000600181905550336000806101000a81548173ffffffffffffffffffffffffffffffffffffffff021916908373ffffffffffffffffffffffffffffffffffffffff16021790555061104a806100686000396000f3fe608060405234801561001057600080fd5b50600436106100885760003560e01c80639ba4853a1161005b5780639ba4853a14610102578063f2e5f6821461011e578063f62de8281461013a578063f851a4401461016f57610088565b80632986c0e51461008d57806353e4dfba146100ab57806382ab890a146100dc57806383197ef0146100f8575b600080fd5b61009561018d565b6040516100a29190610cfe565b60405180910390f35b6100c560048036038101906100c09190610a67565b610193565b6040516100d3929190610ca7565b60405180910390f35b6100f660048036038101906100f19190610a67565b610348565b005b6101006103d0565b005b61011c600480360381019061011791906109d0565b610477565b005b61013860048036038101906101339190610a67565b6105f7565b005b610154600480360381019061014f9190610a67565b610675565b60405161016696959493929190610d8f565b60405180910390f35b6101776108a6565b6040516101849190610c8c565b60405180910390f35b60015481565b60608060608367ffffffffffffffff811180156101af57600080fd5b506040519080825280602002602001820160405280156101e357816020015b60608152602001906001900390816101ce5790505b50905060608467ffffffffffffffff811180156101ff57600080fd5b5060405190808252806020026020018201604052801561022e5781602001602082028036833780820191505090505b50905060005b8581101561033a5760006003828154811061024b57fe5b90600052602060002090600602019050806001018054600181600116156101000203166002900480601f0160208091040260200160405190810160405280929190818152602001828054600181600116156101000203166002900480156102f35780601f106102c8576101008083540402835291602001916102f3565b820191906000526020600020905b8154815290600101906020018083116102d657829003601f168201915b505050505084838151811061030457fe5b6020026020010181905250806005015483838151811061032057fe5b602002602001018181525050508080600101915050610234565b508181935093505050915091565b6003818154811061035557fe5b9060005260206000209060060201600501600081548092919060010191905055507f8ecf343d22d1934aea3fb34b7332371552b19286c5bc696adae16c7690a90d5481600383815481106103a557fe5b9060005260206000209060060201600501546040516103c5929190610e05565b60405180910390a150565b3373ffffffffffffffffffffffffffffffffffffffff1660008054906101000a900473ffffffffffffffffffffffffffffffffffffffff1673ffffffffffffffffffffffffffffffffffffffff161461045e576040517f08c379a000000000000000000000000000000000000000000000000000000000815260040161045590610cde565b60405180910390fd5b3373ffffffffffffffffffffffffffffffffffffffff16ff5b60016000815480929190600101919050555060036040518060c0016040528060015481526020018581526020013373ffffffffffffffffffffffffffffffffffffffff168152602001848152602001838152602001600081525090806001815401808255809150506001900390600052602060002090600602016000909190919091506000820151816000015560208201518160010190805190602001906105209291906108ca565b5060408201518160020160006101000a81548173ffffffffffffffffffffffffffffffffffffffff021916908373ffffffffffffffffffffffffffffffffffffffff16021790555060608201518160030190805190602001906105849291906108ca565b5060808201518160040190805190602001906105a19291906108ca565b5060a0820151816005015550507f70df37cfaae47f827752db0303450b8d361aca31a5e9abc56ded9d2e736432786001548433858560006040516105ea96959493929190610d19565b60405180910390a1505050565b60046003828154811061060657fe5b9060005260206000209060060201600501819055507f8ecf343d22d1934aea3fb34b7332371552b19286c5bc696adae16c7690a90d54816003838154811061064a57fe5b90600052602060002090600602016005015460405161066a929190610e05565b60405180910390a150565b6003818154811061068257fe5b9060005260206000209060060201600091509050806000015490806001018054600181600116156101000203166002900480601f0160208091040260200160405190810160405280929190818152602001828054600181600116156101000203166002900480156107345780601f1061070957610100808354040283529160200191610734565b820191906000526020600020905b81548152906001019060200180831161071757829003601f168201915b5050505050908060020160009054906101000a900473ffffffffffffffffffffffffffffffffffffffff1690806003018054600181600116156101000203166002900480601f0160208091040260200160405190810160405280929190818152602001828054600181600116156101000203166002900480156107f85780601f106107cd576101008083540402835291602001916107f8565b820191906000526020600020905b8154815290600101906020018083116107db57829003601f168201915b505050505090806004018054600181600116156101000203166002900480601f0160208091040260200160405190810160405280929190818152602001828054600181600116156101000203166002900480156108965780601f1061086b57610100808354040283529160200191610896565b820191906000526020600020905b81548152906001019060200180831161087957829003601f168201915b5050505050908060050154905086565b60008054906101000a900473ffffffffffffffffffffffffffffffffffffffff1681565b828054600181600116156101000203166002900490600052602060002090601f016020900481019282601f1061090b57805160ff1916838001178555610939565b82800160010185558215610939579182015b8281111561093857825182559160200191906001019061091d565b5b509050610946919061094a565b5090565b5b8082111561096357600081600090555060010161094b565b5090565b600082601f83011261097857600080fd5b813561098b61098682610e5b565b610e2e565b915080825260208301602083018583830111156109a757600080fd5b6109b2838284610faa565b50505092915050565b6000813590506109ca81610ffd565b92915050565b6000806000606084860312156109e557600080fd5b600084013567ffffffffffffffff8111156109ff57600080fd5b610a0b86828701610967565b935050602084013567ffffffffffffffff811115610a2857600080fd5b610a3486828701610967565b925050604084013567ffffffffffffffff811115610a5157600080fd5b610a5d86828701610967565b9150509250925092565b600060208284031215610a7957600080fd5b6000610a87848285016109bb565b91505092915050565b6000610a9c8383610bbc565b905092915050565b6000610ab08383610c6e565b60208301905092915050565b610ac581610f62565b82525050565b610ad481610f26565b82525050565b6000610ae582610ea7565b610aef8185610ee2565b935083602082028501610b0185610e87565b8060005b85811015610b3d5784840389528151610b1e8582610a90565b9450610b2983610ec8565b925060208a01995050600181019050610b05565b50829750879550505050505092915050565b6000610b5a82610eb2565b610b648185610ef3565b9350610b6f83610e97565b8060005b83811015610ba0578151610b878882610aa4565b9750610b9283610ed5565b925050600181019050610b73565b5085935050505092915050565b610bb681610f74565b82525050565b6000610bc782610ebd565b610bd18185610f04565b9350610be1818560208601610fb9565b610bea81610fec565b840191505092915050565b6000610c0082610ebd565b610c0a8185610f15565b9350610c1a818560208601610fb9565b610c2381610fec565b840191505092915050565b6000610c3b600a83610f15565b91507f6e6f74207065726d6974000000000000000000000000000000000000000000006000830152602082019050919050565b610c7781610f58565b82525050565b610c8681610f58565b82525050565b6000602082019050610ca16000830184610acb565b92915050565b60006040820190508181036000830152610cc18185610ada565b90508181036020830152610cd58184610b4f565b90509392505050565b60006020820190508181036000830152610cf781610c2e565b9050919050565b6000602082019050610d136000830184610c7d565b92915050565b600060c082019050610d2e6000830189610c7d565b8181036020830152610d408188610bf5565b9050610d4f6040830187610abc565b8181036060830152610d618186610bf5565b90508181036080830152610d758185610bf5565b9050610d8460a0830184610bad565b979650505050505050565b600060c082019050610da46000830189610c7d565b8181036020830152610db68188610bf5565b9050610dc56040830187610acb565b8181036060830152610dd78186610bf5565b90508181036080830152610deb8185610bf5565b9050610dfa60a0830184610c7d565b979650505050505050565b6000604082019050610e1a6000830185610c7d565b610e276020830184610c7d565b9392505050565b6000604051905081810181811067ffffffffffffffff82111715610e5157600080fd5b8060405250919050565b600067ffffffffffffffff821115610e7257600080fd5b601f19601f8301169050602081019050919050565b6000819050602082019050919050565b6000819050602082019050919050565b600081519050919050565b600081519050919050565b600081519050919050565b6000602082019050919050565b6000602082019050919050565b600082825260208201905092915050565b600082825260208201905092915050565b600082825260208201905092915050565b600082825260208201905092915050565b6000610f3182610f38565b9050919050565b600073ffffffffffffffffffffffffffffffffffffffff82169050919050565b6000819050919050565b6000610f6d82610f86565b9050919050565b6000610f7f82610f58565b9050919050565b6000610f9182610f98565b9050919050565b6000610fa382610f38565b9050919050565b82818337600083830152505050565b60005b83811015610fd7578082015181840152602081019050610fbc565b83811115610fe6576000848401525b50505050565b6000601f19601f8301169050919050565b61100681610f58565b811461101157600080fd5b5056fea2646970667358221220191b80494053e410a78892a118f3facc4cc8d82108d95f4bf166bc710f50880b64736f6c634300060c0033",
  "immutableReferences": {},
  "source": "// SPDX-License-Identifier: GPL-3.0\r\npragma solidity >=0.5.0 <0.7.0;\r\npragma experimental ABIEncoderV2;\r\n//contract token { function transfer(address receiver, uint amount) public { receiver; amount; } }\r\n\r\ncontract DemandFactory {\r\n  address public admin;\r\n  uint public index;\r\n  //token public coin;\r\n\r\n  mapping (address => uint) private balances;\r\n\r\n  event Sent(address from, address to, uint amount);\r\n  event NewDemand(uint id, string username, address sender, string content, string contact, uint status);\r\n  event Update(uint id, uint status);\r\n\r\n  constructor() public {\r\n    //coin = token(0x89d1Ff8D733Bec9B5b54ce1c7d4ddE433e2Aa303);\r\n    index = 0;\r\n    admin = msg.sender;\r\n  }\r\n\r\n  struct Demand {\r\n    uint id;          //需求编号\r\n    string username;  //发起人 or 机构 名称\r\n    address sender;   //发起人address\r\n    string content;   //需求内容\r\n    string contact;   //联系方式\r\n    uint status;      //状态号 0:初始 1：通过 2：捐赠中 3：捐赠完成 4：失败\r\n  }\r\n\r\n  Demand[] public demands;\r\n\r\n  function createDemand(string memory _username, string memory _content, string memory _contact) public  {\r\n    index++;\r\n    demands.push(Demand(index, _username, msg.sender, _content, _contact, 0));\r\n    emit NewDemand(index, _username, msg.sender, _content, _contact, 0);\r\n  }\r\n  \r\n  function getDemands(uint index)   //局部测试 忽略他\r\n        public view\r\n        returns (string[] memory,uint[] memory)\r\n    {\r\n        string[] memory name = new string[](index);\r\n        uint[] memory status = new uint[](index);\r\n        \r\n        for (uint i = 0; i < index; i++) {\r\n            Demand storage d =demands[i];\r\n            name[i] = d.username;\r\n            status[i] = d.status;\r\n        }\r\n        \r\n        return (name, status);\r\n    }\r\n\r\n  function update(uint index) public {    //更新状态\r\n    demands[index].status ++;\r\n    emit Update(index, demands[index].status);\r\n  }\r\n\r\n  function failed(uint index) public {    //需求中断或失败\r\n    demands[index].status = 4;\r\n    emit Update(index, demands[index].status);\r\n  } \r\n\r\n\r\n  function destroy() public{      //合约销毁\r\n    require(admin == msg.sender,\"not permit\");\r\n    selfdestruct(msg.sender);\r\n  }\r\n\r\n  /* function agree() public {\r\n    coin.transfer(0x149B3Dad9ffe556717964301CED829Bf4BEa7e34,10);\r\n  } */\r\n}",
  "sourcePath": "/c/Users/Lee/Conflux Studio/demo/contracts/DemandFactory.sol",
  "compiler": {
    "name": "solc",
    "version": "0.6.12+commit.27d51765.Linux.g++"
  },
  "schemaVersion": "3.2.0",
  "updatedAt": "2021-03-22T15:28:37.476Z",
  "devdoc": {
    "kind": "dev",
    "methods": {},
    "version": 1
  },
  "userdoc": {
    "kind": "user",
    "methods": {},
    "version": 1
  }
}