{
  "contractName": "DemandFactory",
  "abi": [
    {
      "inputs": [],
      "stateMutability": "nonpayable",
      "type": "constructor"
    },
    {
      "anonymous": false,
      "inputs": [
        {
          "indexed": false,
          "internalType": "uint256",
          "name": "id",
          "type": "uint256"
        },
        {
          "indexed": false,
          "internalType": "string",
          "name": "username",
          "type": "string"
        },
        {
          "indexed": false,
          "internalType": "address",
          "name": "sender",
          "type": "address"
        },
        {
          "indexed": false,
          "internalType": "string",
          "name": "content",
          "type": "string"
        },
        {
          "indexed": false,
          "internalType": "string",
          "name": "contact",
          "type": "string"
        },
        {
          "indexed": false,
          "internalType": "uint256",
          "name": "status",
          "type": "uint256"
        }
      ],
      "name": "NewDemand",
      "type": "event"
    },
    {
      "anonymous": false,
      "inputs": [
        {
          "indexed": false,
          "internalType": "address",
          "name": "from",
          "type": "address"
        },
        {
          "indexed": false,
          "internalType": "address",
          "name": "to",
          "type": "address"
        },
        {
          "indexed": false,
          "internalType": "uint256",
          "name": "amount",
          "type": "uint256"
        }
      ],
      "name": "Sent",
      "type": "event"
    },
    {
      "anonymous": false,
      "inputs": [
        {
          "indexed": false,
          "internalType": "uint256",
          "name": "id",
          "type": "uint256"
        },
        {
          "indexed": false,
          "internalType": "uint256",
          "name": "status",
          "type": "uint256"
        }
      ],
      "name": "Update",
      "type": "event"
    },
    {
      "inputs": [],
      "name": "admin",
      "outputs": [
        {
          "internalType": "address",
          "name": "",
          "type": "address"
        }
      ],
      "stateMutability": "view",
      "type": "function"
    },
    {
      "inputs": [
        {
          "internalType": "uint256",
          "name": "",
          "type": "uint256"
        }
      ],
      "name": "demands",
      "outputs": [
        {
          "internalType": "uint256",
          "name": "id",
          "type": "uint256"
        },
        {
          "internalType": "string",
          "name": "username",
          "type": "string"
        },
        {
          "internalType": "address",
          "name": "sender",
          "type": "address"
        },
        {
          "internalType": "string",
          "name": "content",
          "type": "string"
        },
        {
          "internalType": "string",
          "name": "contact",
          "type": "string"
        },
        {
          "internalType": "uint256",
          "name": "status",
          "type": "uint256"
        }
      ],
      "stateMutability": "view",
      "type": "function"
    },
    {
      "inputs": [],
      "name": "index",
      "outputs": [
        {
          "internalType": "uint256",
          "name": "",
          "type": "uint256"
        }
      ],
      "stateMutability": "view",
      "type": "function"
    },
    {
      "inputs": [
        {
          "internalType": "string",
          "name": "_username",
          "type": "string"
        },
        {
          "internalType": "string",
          "name": "_content",
          "type": "string"
        },
        {
          "internalType": "string",
          "name": "_contact",
          "type": "string"
        }
      ],
      "name": "createDemand",
      "outputs": [],
      "stateMutability": "nonpayable",
      "type": "function"
    },
    {
      "inputs": [
        {
          "internalType": "uint256",
          "name": "index",
          "type": "uint256"
        }
      ],
      "name": "getDemands",
      "outputs": [
        {
          "internalType": "string[]",
          "name": "",
          "type": "string[]"
        },
        {
          "internalType": "uint256[]",
          "name": "",
          "type": "uint256[]"
        }
      ],
      "stateMutability": "view",
      "type": "function"
    },
    {
      "inputs": [
        {
          "internalType": "uint256",
          "name": "index",
          "type": "uint256"
        }
      ],
      "name": "update",
      "outputs": [],
      "stateMutability": "nonpayable",
      "type": "function"
    },
    {
      "inputs": [
        {
          "internalType": "uint256",
          "name": "index",
          "type": "uint256"
        }
      ],
      "name": "rollback",
      "outputs": [],
      "stateMutability": "nonpayable",
      "type": "function"
    },
    {
      "inputs": [
        {
          "internalType": "uint256",
          "name": "index",
          "type": "uint256"
        }
      ],
      "name": "failed",
      "outputs": [],
      "stateMutability": "nonpayable",
      "type": "function"
    },
    {
      "inputs": [],
      "name": "destroy",
      "outputs": [],
      "stateMutability": "nonpayable",
      "type": "function"
    }
  ],
  "bytecode": "0x608060405234801561001057600080fd5b506000600181905550336000806101000a81548173ffffffffffffffffffffffffffffffffffffffff021916908373ffffffffffffffffffffffffffffffffffffffff1602179055506110fa806100686000396000f3fe608060405234801561001057600080fd5b50600436106100935760003560e01c806383197ef01161006657806383197ef01461011f5780639ba4853a14610129578063f2e5f68214610145578063f62de82814610161578063f851a4401461019657610093565b80630da9da20146100985780632986c0e5146100b457806353e4dfba146100d257806382ab890a14610103575b600080fd5b6100b260048036038101906100ad9190610b17565b6101b4565b005b6100bc61023d565b6040516100c99190610dae565b60405180910390f35b6100ec60048036038101906100e79190610b17565b610243565b6040516100fa929190610d57565b60405180910390f35b61011d60048036038101906101189190610b17565b6103f8565b005b610127610480565b005b610143600480360381019061013e9190610a80565b610527565b005b61015f600480360381019061015a9190610b17565b6106a7565b005b61017b60048036038101906101769190610b17565b610725565b60405161018d96959493929190610e3f565b60405180910390f35b61019e610956565b6040516101ab9190610d3c565b60405180910390f35b600381815481106101c157fe5b906000526020600020906006020160050160008154809291906001900391905055507f8ecf343d22d1934aea3fb34b7332371552b19286c5bc696adae16c7690a90d54816003838154811061021257fe5b906000526020600020906006020160050154604051610232929190610eb5565b60405180910390a150565b60015481565b60608060608367ffffffffffffffff8111801561025f57600080fd5b5060405190808252806020026020018201604052801561029357816020015b606081526020019060019003908161027e5790505b50905060608467ffffffffffffffff811180156102af57600080fd5b506040519080825280602002602001820160405280156102de5781602001602082028036833780820191505090505b50905060005b858110156103ea576000600382815481106102fb57fe5b90600052602060002090600602019050806001018054600181600116156101000203166002900480601f0160208091040260200160405190810160405280929190818152602001828054600181600116156101000203166002900480156103a35780601f10610378576101008083540402835291602001916103a3565b820191906000526020600020905b81548152906001019060200180831161038657829003601f168201915b50505050508483815181106103b457fe5b602002602001018190525080600501548383815181106103d057fe5b6020026020010181815250505080806001019150506102e4565b508181935093505050915091565b6003818154811061040557fe5b9060005260206000209060060201600501600081548092919060010191905055507f8ecf343d22d1934aea3fb34b7332371552b19286c5bc696adae16c7690a90d54816003838154811061045557fe5b906000526020600020906006020160050154604051610475929190610eb5565b60405180910390a150565b3373ffffffffffffffffffffffffffffffffffffffff1660008054906101000a900473ffffffffffffffffffffffffffffffffffffffff1673ffffffffffffffffffffffffffffffffffffffff161461050e576040517f08c379a000000000000000000000000000000000000000000000000000000000815260040161050590610d8e565b60405180910390fd5b3373ffffffffffffffffffffffffffffffffffffffff16ff5b60036040518060c0016040528060015481526020018581526020013373ffffffffffffffffffffffffffffffffffffffff168152602001848152602001838152602001600081525090806001815401808255809150506001900390600052602060002090600602016000909190919091506000820151816000015560208201518160010190805190602001906105be92919061097a565b5060408201518160020160006101000a81548173ffffffffffffffffffffffffffffffffffffffff021916908373ffffffffffffffffffffffffffffffffffffffff160217905550606082015181600301908051906020019061062292919061097a565b50608082015181600401908051906020019061063f92919061097a565b5060a0820151816005015550507f70df37cfaae47f827752db0303450b8d361aca31a5e9abc56ded9d2e7364327860015484338585600060405161068896959493929190610dc9565b60405180910390a1600160008154809291906001019190505550505050565b6004600382815481106106b657fe5b9060005260206000209060060201600501819055507f8ecf343d22d1934aea3fb34b7332371552b19286c5bc696adae16c7690a90d5481600383815481106106fa57fe5b90600052602060002090600602016005015460405161071a929190610eb5565b60405180910390a150565b6003818154811061073257fe5b9060005260206000209060060201600091509050806000015490806001018054600181600116156101000203166002900480601f0160208091040260200160405190810160405280929190818152602001828054600181600116156101000203166002900480156107e45780601f106107b9576101008083540402835291602001916107e4565b820191906000526020600020905b8154815290600101906020018083116107c757829003601f168201915b5050505050908060020160009054906101000a900473ffffffffffffffffffffffffffffffffffffffff1690806003018054600181600116156101000203166002900480601f0160208091040260200160405190810160405280929190818152602001828054600181600116156101000203166002900480156108a85780601f1061087d576101008083540402835291602001916108a8565b820191906000526020600020905b81548152906001019060200180831161088b57829003601f168201915b505050505090806004018054600181600116156101000203166002900480601f0160208091040260200160405190810160405280929190818152602001828054600181600116156101000203166002900480156109465780601f1061091b57610100808354040283529160200191610946565b820191906000526020600020905b81548152906001019060200180831161092957829003601f168201915b5050505050908060050154905086565b60008054906101000a900473ffffffffffffffffffffffffffffffffffffffff1681565b828054600181600116156101000203166002900490600052602060002090601f016020900481019282601f106109bb57805160ff19168380011785556109e9565b828001600101855582156109e9579182015b828111156109e85782518255916020019190600101906109cd565b5b5090506109f691906109fa565b5090565b5b80821115610a135760008160009055506001016109fb565b5090565b600082601f830112610a2857600080fd5b8135610a3b610a3682610f0b565b610ede565b91508082526020830160208301858383011115610a5757600080fd5b610a6283828461105a565b50505092915050565b600081359050610a7a816110ad565b92915050565b600080600060608486031215610a9557600080fd5b600084013567ffffffffffffffff811115610aaf57600080fd5b610abb86828701610a17565b935050602084013567ffffffffffffffff811115610ad857600080fd5b610ae486828701610a17565b925050604084013567ffffffffffffffff811115610b0157600080fd5b610b0d86828701610a17565b9150509250925092565b600060208284031215610b2957600080fd5b6000610b3784828501610a6b565b91505092915050565b6000610b4c8383610c6c565b905092915050565b6000610b608383610d1e565b60208301905092915050565b610b7581611012565b82525050565b610b8481610fd6565b82525050565b6000610b9582610f57565b610b9f8185610f92565b935083602082028501610bb185610f37565b8060005b85811015610bed5784840389528151610bce8582610b40565b9450610bd983610f78565b925060208a01995050600181019050610bb5565b50829750879550505050505092915050565b6000610c0a82610f62565b610c148185610fa3565b9350610c1f83610f47565b8060005b83811015610c50578151610c378882610b54565b9750610c4283610f85565b925050600181019050610c23565b5085935050505092915050565b610c6681611024565b82525050565b6000610c7782610f6d565b610c818185610fb4565b9350610c91818560208601611069565b610c9a8161109c565b840191505092915050565b6000610cb082610f6d565b610cba8185610fc5565b9350610cca818560208601611069565b610cd38161109c565b840191505092915050565b6000610ceb600a83610fc5565b91507f6e6f74207065726d6974000000000000000000000000000000000000000000006000830152602082019050919050565b610d2781611008565b82525050565b610d3681611008565b82525050565b6000602082019050610d516000830184610b7b565b92915050565b60006040820190508181036000830152610d718185610b8a565b90508181036020830152610d858184610bff565b90509392505050565b60006020820190508181036000830152610da781610cde565b9050919050565b6000602082019050610dc36000830184610d2d565b92915050565b600060c082019050610dde6000830189610d2d565b8181036020830152610df08188610ca5565b9050610dff6040830187610b6c565b8181036060830152610e118186610ca5565b90508181036080830152610e258185610ca5565b9050610e3460a0830184610c5d565b979650505050505050565b600060c082019050610e546000830189610d2d565b8181036020830152610e668188610ca5565b9050610e756040830187610b7b565b8181036060830152610e878186610ca5565b90508181036080830152610e9b8185610ca5565b9050610eaa60a0830184610d2d565b979650505050505050565b6000604082019050610eca6000830185610d2d565b610ed76020830184610d2d565b9392505050565b6000604051905081810181811067ffffffffffffffff82111715610f0157600080fd5b8060405250919050565b600067ffffffffffffffff821115610f2257600080fd5b601f19601f8301169050602081019050919050565b6000819050602082019050919050565b6000819050602082019050919050565b600081519050919050565b600081519050919050565b600081519050919050565b6000602082019050919050565b6000602082019050919050565b600082825260208201905092915050565b600082825260208201905092915050565b600082825260208201905092915050565b600082825260208201905092915050565b6000610fe182610fe8565b9050919050565b600073ffffffffffffffffffffffffffffffffffffffff82169050919050565b6000819050919050565b600061101d82611036565b9050919050565b600061102f82611008565b9050919050565b600061104182611048565b9050919050565b600061105382610fe8565b9050919050565b82818337600083830152505050565b60005b8381101561108757808201518184015260208101905061106c565b83811115611096576000848401525b50505050565b6000601f19601f8301169050919050565b6110b681611008565b81146110c157600080fd5b5056fea26469706673582212200ca13de8c3d27221fc23db2759710416f7e17e2aa0d283def80051cfdd4b9fa364736f6c634300060c0033",
  "immutableReferences": {},
  "source": "// SPDX-License-Identifier: GPL-3.0\r\npragma solidity >=0.5.0 <0.7.0;\r\npragma experimental ABIEncoderV2;\r\n//contract token { function transfer(address receiver, uint amount) public { receiver; amount; } }\r\n\r\ncontract DemandFactory {\r\n  address public admin;\r\n  uint public index;\r\n  //token public coin;\r\n\r\n  mapping (address => uint) private balances;\r\n\r\n  event Sent(address from, address to, uint amount);\r\n  event NewDemand(uint id, string username, address sender, string content, string contact, uint status);\r\n  event Update(uint id, uint status);\r\n\r\n  constructor() public {\r\n    //coin = token(0x89d1Ff8D733Bec9B5b54ce1c7d4ddE433e2Aa303);\r\n    index = 0;\r\n    admin = msg.sender;\r\n  }\r\n\r\n  struct Demand {\r\n    uint id;          //需求编号\r\n    string username;  //发起人 or 机构 名称\r\n    address sender;   //发起人address\r\n    string content;   //需求内容\r\n    string contact;   //联系方式\r\n    uint status;      //状态号 0:初始 1：通过 2：捐赠中 3：捐赠完成 4：失败\r\n  }\r\n\r\n  Demand[] public demands;\r\n\r\n  function createDemand(string memory _username, string memory _content, string memory _contact) public  {\r\n    demands.push(Demand(index, _username, msg.sender, _content, _contact, 0));\r\n    emit NewDemand(index, _username, msg.sender, _content, _contact, 0);\r\n    index++;\r\n  }\r\n  \r\n  function getDemands(uint index)   //获取所有需求 局部测试 忽略他\r\n        public view\r\n        returns (string[] memory,uint[] memory)\r\n  {\r\n        string[] memory name = new string[](index);\r\n        uint[] memory status = new uint[](index);\r\n        \r\n        for (uint i = 0; i < index; i++) {\r\n            Demand storage d =demands[i];\r\n            name[i] = d.username;\r\n            status[i] = d.status;\r\n        }\r\n        \r\n        return (name, status);\r\n  }\r\n\r\n  \r\n\r\n  function update(uint index) public {    //更新状态 0:初始 1：通过 2：捐赠中 3：捐赠完成 4：失败\r\n    demands[index].status ++;\r\n    emit Update(index, demands[index].status);\r\n  }\r\n\r\n  function rollback(uint index) public {      //测试用 可以使需求状态回到前一个位置\r\n    demands[index].status --;\r\n    emit Update(index, demands[index].status);\r\n  }\r\n\r\n  function failed(uint index) public {    //需求中断或失败\r\n    demands[index].status = 4;\r\n    emit Update(index, demands[index].status);\r\n  } \r\n\r\n\r\n  function destroy() public{      //合约销毁\r\n    require(admin == msg.sender,\"not permit\");\r\n    selfdestruct(msg.sender);\r\n  }\r\n\r\n  /* function agree() public {\r\n    coin.transfer(0x149B3Dad9ffe556717964301CED829Bf4BEa7e34,10);\r\n  } */\r\n}",
  "sourcePath": "/c/Users/Lee/Conflux Studio/DemandFactory/contracts/DemandFactory.sol",
  "compiler": {
    "name": "solc",
    "version": "0.6.12+commit.27d51765.Linux.g++"
  },
  "schemaVersion": "3.2.0",
  "updatedAt": "2021-03-29T10:17:40.664Z",
  "devdoc": {
    "kind": "dev",
    "methods": {},
    "version": 1
  },
  "userdoc": {
    "kind": "user",
    "methods": {},
    "version": 1
  }
}